{
  "_format": "hh-sol-artifact-1",
  "contractName": "RegSC",
  "sourceName": "contracts/RegSc_new.sol",
  "abi": [
    {
      "inputs": [
        {
          "internalType": "uint256",
          "name": "capacity",
          "type": "uint256"
        },
        {
          "internalType": "string",
          "name": "name",
          "type": "string"
        },
        {
          "internalType": "string",
          "name": "location",
          "type": "string"
        }
      ],
      "name": "newColdStorage",
      "outputs": [],
      "stateMutability": "nonpayable",
      "type": "function"
    },
    {
      "inputs": [
        {
          "internalType": "uint256",
          "name": "farmArea",
          "type": "uint256"
        },
        {
          "internalType": "string",
          "name": "name",
          "type": "string"
        },
        {
          "internalType": "string",
          "name": "farmLocation",
          "type": "string"
        },
        {
          "internalType": "string",
          "name": "cropType",
          "type": "string"
        }
      ],
      "name": "newFarmer",
      "outputs": [],
      "stateMutability": "nonpayable",
      "type": "function"
    },
    {
      "inputs": [
        {
          "internalType": "string",
          "name": "name",
          "type": "string"
        }
      ],
      "name": "newGovernmentAgencies",
      "outputs": [],
      "stateMutability": "nonpayable",
      "type": "function"
    },
    {
      "inputs": [
        {
          "internalType": "string",
          "name": "name",
          "type": "string"
        },
        {
          "internalType": "string",
          "name": "company_type",
          "type": "string"
        }
      ],
      "name": "newInsuranceCompany",
      "outputs": [],
      "stateMutability": "nonpayable",
      "type": "function"
    },
    {
      "inputs": [
        {
          "internalType": "string",
          "name": "name",
          "type": "string"
        },
        {
          "internalType": "string",
          "name": "experience",
          "type": "string"
        }
      ],
      "name": "newSpecialist",
      "outputs": [],
      "stateMutability": "nonpayable",
      "type": "function"
    },
    {
      "inputs": [
        {
          "internalType": "uint256",
          "name": "c",
          "type": "uint256"
        }
      ],
      "name": "viewColdStorage",
      "outputs": [
        {
          "internalType": "uint256",
          "name": "",
          "type": "uint256"
        },
        {
          "internalType": "uint256",
          "name": "",
          "type": "uint256"
        },
        {
          "internalType": "string",
          "name": "",
          "type": "string"
        },
        {
          "internalType": "string",
          "name": "",
          "type": "string"
        }
      ],
      "stateMutability": "view",
      "type": "function"
    },
    {
      "inputs": [
        {
          "internalType": "uint256",
          "name": "f",
          "type": "uint256"
        }
      ],
      "name": "viewFarmer",
      "outputs": [
        {
          "internalType": "uint256",
          "name": "",
          "type": "uint256"
        },
        {
          "internalType": "uint256",
          "name": "",
          "type": "uint256"
        },
        {
          "internalType": "uint256",
          "name": "",
          "type": "uint256"
        },
        {
          "internalType": "string",
          "name": "",
          "type": "string"
        },
        {
          "internalType": "string",
          "name": "",
          "type": "string"
        },
        {
          "internalType": "string",
          "name": "",
          "type": "string"
        }
      ],
      "stateMutability": "view",
      "type": "function"
    },
    {
      "inputs": [
        {
          "internalType": "uint256",
          "name": "g",
          "type": "uint256"
        }
      ],
      "name": "viewGovernmentAgencies",
      "outputs": [
        {
          "internalType": "uint256",
          "name": "",
          "type": "uint256"
        },
        {
          "internalType": "string",
          "name": "",
          "type": "string"
        }
      ],
      "stateMutability": "view",
      "type": "function"
    },
    {
      "inputs": [
        {
          "internalType": "uint256",
          "name": "ic",
          "type": "uint256"
        }
      ],
      "name": "viewInsuranceCompany",
      "outputs": [
        {
          "internalType": "uint256",
          "name": "",
          "type": "uint256"
        },
        {
          "internalType": "string",
          "name": "",
          "type": "string"
        },
        {
          "internalType": "string",
          "name": "",
          "type": "string"
        }
      ],
      "stateMutability": "view",
      "type": "function"
    },
    {
      "inputs": [
        {
          "internalType": "uint256",
          "name": "s",
          "type": "uint256"
        }
      ],
      "name": "viewSpecialist",
      "outputs": [
        {
          "internalType": "uint256",
          "name": "",
          "type": "uint256"
        },
        {
          "internalType": "string",
          "name": "",
          "type": "string"
        },
        {
          "internalType": "string",
          "name": "",
          "type": "string"
        }
      ],
      "stateMutability": "view",
      "type": "function"
    }
  ],
  "bytecode": "0x608060405234801561001057600080fd5b50611a70806100206000396000f3fe608060405234801561001057600080fd5b506004361061009e5760003560e01c8063a29227d811610066578063a29227d814610175578063aa83a21f146101a6578063c4ae4737146101c2578063cab6356a146101de578063eb64ed26146101fa5761009e565b80631a1d9115146100a357806320fdd8b6146100d6578063569fd848146101085780636f18374a1461013d5780637c7806c614610159575b600080fd5b6100bd60048036038101906100b891906114ec565b61022c565b6040516100cd94939291906116fc565b60405180910390f35b6100f060048036038101906100eb91906114ec565b610504565b6040516100ff939291906116b7565b60405180910390f35b610122600480360381019061011d91906114ec565b61078d565b6040516101349695949392919061174f565b60405180910390f35b6101576004803603810190610152919061143f565b610b92565b005b610173600480360381019061016e9190611594565b610c0f565b005b61018f600480360381019061018a91906114ec565b610cf6565b60405161019d929190611687565b60405180910390f35b6101c060048036038101906101bb9190611515565b610ea3565b005b6101dc60048036038101906101d79190611480565b610f55565b005b6101f860048036038101906101f39190611480565b610ff6565b005b610214600480360381019061020f91906114ec565b611096565b604051610223939291906116b7565b60405180910390f35b60008060608060005b60048054905081116104fb576004818154811061027b577f4e487b7100000000000000000000000000000000000000000000000000000000600052603260045260246000fd5b9060005260206000209060040201600001548614156104e857600481815481106102ce577f4e487b7100000000000000000000000000000000000000000000000000000000600052603260045260246000fd5b9060005260206000209060040201600001546004828154811061031a577f4e487b7100000000000000000000000000000000000000000000000000000000600052603260045260246000fd5b90600052602060002090600402016001015460048381548110610366577f4e487b7100000000000000000000000000000000000000000000000000000000600052603260045260246000fd5b9060005260206000209060040201600201600484815481106103b1577f4e487b7100000000000000000000000000000000000000000000000000000000600052603260045260246000fd5b90600052602060002090600402016003018180546103ce906118d9565b80601f01602080910402602001604051908101604052809291908181526020018280546103fa906118d9565b80156104475780601f1061041c57610100808354040283529160200191610447565b820191906000526020600020905b81548152906001019060200180831161042a57829003601f168201915b5050505050915080805461045a906118d9565b80601f0160208091040260200160405190810160405280929190818152602001828054610486906118d9565b80156104d35780601f106104a8576101008083540402835291602001916104d3565b820191906000526020600020905b8154815290600101906020018083116104b657829003601f168201915b505050505090509450945094509450506104fd565b80806104f39061193c565b915050610235565b505b9193509193565b600060608060005b60028054905081116107845760028181548110610552577f4e487b7100000000000000000000000000000000000000000000000000000000600052603260045260246000fd5b90600052602060002090600302016000015485141561077157600281815481106105a5577f4e487b7100000000000000000000000000000000000000000000000000000000600052603260045260246000fd5b906000526020600020906003020160000154600282815481106105f1577f4e487b7100000000000000000000000000000000000000000000000000000000600052603260045260246000fd5b90600052602060002090600302016001016002838154811061063c577f4e487b7100000000000000000000000000000000000000000000000000000000600052603260045260246000fd5b9060005260206000209060030201600201818054610659906118d9565b80601f0160208091040260200160405190810160405280929190818152602001828054610685906118d9565b80156106d25780601f106106a7576101008083540402835291602001916106d2565b820191906000526020600020905b8154815290600101906020018083116106b557829003601f168201915b505050505091508080546106e5906118d9565b80601f0160208091040260200160405190810160405280929190818152602001828054610711906118d9565b801561075e5780601f106107335761010080835404028352916020019161075e565b820191906000526020600020905b81548152906001019060200180831161074157829003601f168201915b5050505050905093509350935050610786565b808061077c9061193c565b91505061050c565b505b9193909250565b6000806000606080606060005b6000805490508111610b8757600081815481106107e0577f4e487b7100000000000000000000000000000000000000000000000000000000600052603260045260246000fd5b906000526020600020906006020160000154881415610b745760008181548110610833577f4e487b7100000000000000000000000000000000000000000000000000000000600052603260045260246000fd5b9060005260206000209060060201600001546000828154811061087f577f4e487b7100000000000000000000000000000000000000000000000000000000600052603260045260246000fd5b906000526020600020906006020160010154600083815481106108cb577f4e487b7100000000000000000000000000000000000000000000000000000000600052603260045260246000fd5b90600052602060002090600602016002015460008481548110610917577f4e487b7100000000000000000000000000000000000000000000000000000000600052603260045260246000fd5b906000526020600020906006020160030160008581548110610962577f4e487b7100000000000000000000000000000000000000000000000000000000600052603260045260246000fd5b9060005260206000209060060201600401600086815481106109ad577f4e487b7100000000000000000000000000000000000000000000000000000000600052603260045260246000fd5b90600052602060002090600602016005018280546109ca906118d9565b80601f01602080910402602001604051908101604052809291908181526020018280546109f6906118d9565b8015610a435780601f10610a1857610100808354040283529160200191610a43565b820191906000526020600020905b815481529060010190602001808311610a2657829003601f168201915b50505050509250818054610a56906118d9565b80601f0160208091040260200160405190810160405280929190818152602001828054610a82906118d9565b8015610acf5780601f10610aa457610100808354040283529160200191610acf565b820191906000526020600020905b815481529060010190602001808311610ab257829003601f168201915b50505050509150808054610ae2906118d9565b80601f0160208091040260200160405190810160405280929190818152602001828054610b0e906118d9565b8015610b5b5780601f10610b3057610100808354040283529160200191610b5b565b820191906000526020600020905b815481529060010190602001808311610b3e57829003601f168201915b5050505050905096509650965096509650965050610b89565b8080610b7f9061193c565b91505061079a565b505b91939550919395565b600360405180604001604052806001600380549050610bb19190611837565b8152602001838152509080600181540180825580915050600190039060005260206000209060020201600090919091909150600082015181600001556020820151816001019080519060200190610c0992919061131f565b50505050565b60006040518060c001604052806001600080549050610c2e9190611837565b8152602001868152602001600081526020018581526020018481526020018381525090806001815401808255809150506001900390600052602060002090600602016000909190919091506000820151816000015560208201518160010155604082015181600201556060820151816003019080519060200190610cb392919061131f565b506080820151816004019080519060200190610cd092919061131f565b5060a0820151816005019080519060200190610ced92919061131f565b50505050505050565b6000606060005b6003805490508111610e9c5760038181548110610d43577f4e487b7100000000000000000000000000000000000000000000000000000000600052603260045260246000fd5b906000526020600020906002020160000154841415610e895760038181548110610d96577f4e487b7100000000000000000000000000000000000000000000000000000000600052603260045260246000fd5b90600052602060002090600202016000015460038281548110610de2577f4e487b7100000000000000000000000000000000000000000000000000000000600052603260045260246000fd5b9060005260206000209060020201600101808054610dff906118d9565b80601f0160208091040260200160405190810160405280929190818152602001828054610e2b906118d9565b8015610e785780601f10610e4d57610100808354040283529160200191610e78565b820191906000526020600020905b815481529060010190602001808311610e5b57829003601f168201915b505050505090509250925050610e9e565b8080610e949061193c565b915050610cfd565b505b915091565b600460405180608001604052806001600480549050610ec29190611837565b815260200185815260200184815260200183815250908060018154018082558091505060019003906000526020600020906004020160009091909190915060008201518160000155602082015181600101556040820151816002019080519060200190610f3092919061131f565b506060820151816003019080519060200190610f4d92919061131f565b505050505050565b600260405180606001604052806001600280549050610f749190611837565b8152602001848152602001838152509080600181540180825580915050600190039060005260206000209060030201600090919091909150600082015181600001556020820151816001019080519060200190610fd292919061131f565b506040820151816002019080519060200190610fef92919061131f565b5050505050565b60016040518060600160405280600180805490506110149190611837565b815260200184815260200183815250908060018154018082558091505060019003906000526020600020906003020160009091909190915060008201518160000155602082015181600101908051906020019061107292919061131f565b50604082015181600201908051906020019061108f92919061131f565b5050505050565b600060608060005b600180549050811161131657600181815481106110e4577f4e487b7100000000000000000000000000000000000000000000000000000000600052603260045260246000fd5b9060005260206000209060030201600001548514156113035760018181548110611137577f4e487b7100000000000000000000000000000000000000000000000000000000600052603260045260246000fd5b90600052602060002090600302016000015460018281548110611183577f4e487b7100000000000000000000000000000000000000000000000000000000600052603260045260246000fd5b9060005260206000209060030201600101600183815481106111ce577f4e487b7100000000000000000000000000000000000000000000000000000000600052603260045260246000fd5b90600052602060002090600302016002018180546111eb906118d9565b80601f0160208091040260200160405190810160405280929190818152602001828054611217906118d9565b80156112645780601f1061123957610100808354040283529160200191611264565b820191906000526020600020905b81548152906001019060200180831161124757829003601f168201915b50505050509150808054611277906118d9565b80601f01602080910402602001604051908101604052809291908181526020018280546112a3906118d9565b80156112f05780601f106112c5576101008083540402835291602001916112f0565b820191906000526020600020905b8154815290600101906020018083116112d357829003601f168201915b5050505050905093509350935050611318565b808061130e9061193c565b91505061109e565b505b9193909250565b82805461132b906118d9565b90600052602060002090601f01602090048101928261134d5760008555611394565b82601f1061136657805160ff1916838001178555611394565b82800160010185558215611394579182015b82811115611393578251825591602001919060010190611378565b5b5090506113a191906113a5565b5090565b5b808211156113be5760008160009055506001016113a6565b5090565b60006113d56113d0846117ea565b6117c5565b9050828152602081018484840111156113ed57600080fd5b6113f8848285611897565b509392505050565b600082601f83011261141157600080fd5b81356114218482602086016113c2565b91505092915050565b60008135905061143981611a23565b92915050565b60006020828403121561145157600080fd5b600082013567ffffffffffffffff81111561146b57600080fd5b61147784828501611400565b91505092915050565b6000806040838503121561149357600080fd5b600083013567ffffffffffffffff8111156114ad57600080fd5b6114b985828601611400565b925050602083013567ffffffffffffffff8111156114d657600080fd5b6114e285828601611400565b9150509250929050565b6000602082840312156114fe57600080fd5b600061150c8482850161142a565b91505092915050565b60008060006060848603121561152a57600080fd5b60006115388682870161142a565b935050602084013567ffffffffffffffff81111561155557600080fd5b61156186828701611400565b925050604084013567ffffffffffffffff81111561157e57600080fd5b61158a86828701611400565b9150509250925092565b600080600080608085870312156115aa57600080fd5b60006115b88782880161142a565b945050602085013567ffffffffffffffff8111156115d557600080fd5b6115e187828801611400565b935050604085013567ffffffffffffffff8111156115fe57600080fd5b61160a87828801611400565b925050606085013567ffffffffffffffff81111561162757600080fd5b61163387828801611400565b91505092959194509250565b600061164a8261181b565b6116548185611826565b93506116648185602086016118a6565b61166d81611a12565b840191505092915050565b6116818161188d565b82525050565b600060408201905061169c6000830185611678565b81810360208301526116ae818461163f565b90509392505050565b60006060820190506116cc6000830186611678565b81810360208301526116de818561163f565b905081810360408301526116f2818461163f565b9050949350505050565b60006080820190506117116000830187611678565b61171e6020830186611678565b8181036040830152611730818561163f565b90508181036060830152611744818461163f565b905095945050505050565b600060c0820190506117646000830189611678565b6117716020830188611678565b61177e6040830187611678565b8181036060830152611790818661163f565b905081810360808301526117a4818561163f565b905081810360a08301526117b8818461163f565b9050979650505050505050565b60006117cf6117e0565b90506117db828261190b565b919050565b6000604051905090565b600067ffffffffffffffff821115611805576118046119e3565b5b61180e82611a12565b9050602081019050919050565b600081519050919050565b600082825260208201905092915050565b60006118428261188d565b915061184d8361188d565b9250827fffffffffffffffffffffffffffffffffffffffffffffffffffffffffffffffff0382111561188257611881611985565b5b828201905092915050565b6000819050919050565b82818337600083830152505050565b60005b838110156118c45780820151818401526020810190506118a9565b838111156118d3576000848401525b50505050565b600060028204905060018216806118f157607f821691505b60208210811415611905576119046119b4565b5b50919050565b61191482611a12565b810181811067ffffffffffffffff82111715611933576119326119e3565b5b80604052505050565b60006119478261188d565b91507fffffffffffffffffffffffffffffffffffffffffffffffffffffffffffffffff82141561197a57611979611985565b5b600182019050919050565b7f4e487b7100000000000000000000000000000000000000000000000000000000600052601160045260246000fd5b7f4e487b7100000000000000000000000000000000000000000000000000000000600052602260045260246000fd5b7f4e487b7100000000000000000000000000000000000000000000000000000000600052604160045260246000fd5b6000601f19601f8301169050919050565b611a2c8161188d565b8114611a3757600080fd5b5056fea2646970667358221220a914e0d61b882a3ed3129c75b1afa46597136b14103466fd6a3591f197360ef164736f6c63430008030033",
  "linkReferences": {},
  "deployedLinkReferences": {}
}